{
  "_format": "hh-sol-artifact-1",
  "contractName": "PropertyEscrow",
  "sourceName": "contracts/PropertyEscrow.sol",
  "abi": [
    {
      "inputs": [
        {
          "internalType": "address",
          "name": "_feeRecipient",
          "type": "address"
        }
      ],
      "stateMutability": "nonpayable",
      "type": "constructor"
    },
    {
      "inputs": [],
      "name": "AccessControlBadConfirmation",
      "type": "error"
    },
    {
      "inputs": [
        {
          "internalType": "address",
          "name": "account",
          "type": "address"
        },
        {
          "internalType": "bytes32",
          "name": "neededRole",
          "type": "bytes32"
        }
      ],
      "name": "AccessControlUnauthorizedAccount",
      "type": "error"
    },
    {
      "inputs": [],
      "name": "ReentrancyGuardReentrantCall",
      "type": "error"
    },
    {
      "anonymous": false,
      "inputs": [
        {
          "indexed": true,
          "internalType": "uint256",
          "name": "escrowId",
          "type": "uint256"
        },
        {
          "indexed": false,
          "internalType": "string",
          "name": "documentHash",
          "type": "string"
        }
      ],
      "name": "DocumentsSubmitted",
      "type": "event"
    },
    {
      "anonymous": false,
      "inputs": [
        {
          "indexed": true,
          "internalType": "uint256",
          "name": "escrowId",
          "type": "uint256"
        },
        {
          "indexed": true,
          "internalType": "address",
          "name": "approver",
          "type": "address"
        },
        {
          "indexed": false,
          "internalType": "string",
          "name": "role",
          "type": "string"
        }
      ],
      "name": "EscrowApproved",
      "type": "event"
    },
    {
      "anonymous": false,
      "inputs": [
        {
          "indexed": true,
          "internalType": "uint256",
          "name": "escrowId",
          "type": "uint256"
        },
        {
          "indexed": true,
          "internalType": "address",
          "name": "cancelledBy",
          "type": "address"
        }
      ],
      "name": "EscrowCancelled",
      "type": "event"
    },
    {
      "anonymous": false,
      "inputs": [
        {
          "indexed": true,
          "internalType": "uint256",
          "name": "escrowId",
          "type": "uint256"
        },
        {
          "indexed": false,
          "internalType": "uint256",
          "name": "completedAt",
          "type": "uint256"
        }
      ],
      "name": "EscrowCompleted",
      "type": "event"
    },
    {
      "anonymous": false,
      "inputs": [
        {
          "indexed": true,
          "internalType": "uint256",
          "name": "escrowId",
          "type": "uint256"
        },
        {
          "indexed": false,
          "internalType": "enum PropertyEscrow.EscrowType",
          "name": "escrowType",
          "type": "uint8"
        },
        {
          "indexed": true,
          "internalType": "address",
          "name": "seller",
          "type": "address"
        },
        {
          "indexed": true,
          "internalType": "address",
          "name": "buyer",
          "type": "address"
        },
        {
          "indexed": false,
          "internalType": "uint256",
          "name": "price",
          "type": "uint256"
        }
      ],
      "name": "EscrowCreated",
      "type": "event"
    },
    {
      "anonymous": false,
      "inputs": [
        {
          "indexed": true,
          "internalType": "uint256",
          "name": "escrowId",
          "type": "uint256"
        },
        {
          "indexed": true,
          "internalType": "address",
          "name": "disputedBy",
          "type": "address"
        },
        {
          "indexed": false,
          "internalType": "string",
          "name": "reason",
          "type": "string"
        }
      ],
      "name": "EscrowDisputed",
      "type": "event"
    },
    {
      "anonymous": false,
      "inputs": [
        {
          "indexed": true,
          "internalType": "uint256",
          "name": "escrowId",
          "type": "uint256"
        },
        {
          "indexed": true,
          "internalType": "address",
          "name": "buyer",
          "type": "address"
        },
        {
          "indexed": false,
          "internalType": "uint256",
          "name": "amount",
          "type": "uint256"
        }
      ],
      "name": "EscrowFunded",
      "type": "event"
    },
    {
      "anonymous": false,
      "inputs": [
        {
          "indexed": true,
          "internalType": "uint256",
          "name": "escrowId",
          "type": "uint256"
        },
        {
          "indexed": false,
          "internalType": "uint256",
          "name": "milestoneIndex",
          "type": "uint256"
        },
        {
          "indexed": false,
          "internalType": "uint256",
          "name": "releasedAmount",
          "type": "uint256"
        }
      ],
      "name": "MilestoneCompleted",
      "type": "event"
    },
    {
      "anonymous": false,
      "inputs": [
        {
          "indexed": true,
          "internalType": "bytes32",
          "name": "role",
          "type": "bytes32"
        },
        {
          "indexed": true,
          "internalType": "bytes32",
          "name": "previousAdminRole",
          "type": "bytes32"
        },
        {
          "indexed": true,
          "internalType": "bytes32",
          "name": "newAdminRole",
          "type": "bytes32"
        }
      ],
      "name": "RoleAdminChanged",
      "type": "event"
    },
    {
      "anonymous": false,
      "inputs": [
        {
          "indexed": true,
          "internalType": "bytes32",
          "name": "role",
          "type": "bytes32"
        },
        {
          "indexed": true,
          "internalType": "address",
          "name": "account",
          "type": "address"
        },
        {
          "indexed": true,
          "internalType": "address",
          "name": "sender",
          "type": "address"
        }
      ],
      "name": "RoleGranted",
      "type": "event"
    },
    {
      "anonymous": false,
      "inputs": [
        {
          "indexed": true,
          "internalType": "bytes32",
          "name": "role",
          "type": "bytes32"
        },
        {
          "indexed": true,
          "internalType": "address",
          "name": "account",
          "type": "address"
        },
        {
          "indexed": true,
          "internalType": "address",
          "name": "sender",
          "type": "address"
        }
      ],
      "name": "RoleRevoked",
      "type": "event"
    },
    {
      "inputs": [],
      "name": "ARBITRATOR_ROLE",
      "outputs": [
        {
          "internalType": "bytes32",
          "name": "",
          "type": "bytes32"
        }
      ],
      "stateMutability": "view",
      "type": "function"
    },
    {
      "inputs": [],
      "name": "DEFAULT_ADMIN_ROLE",
      "outputs": [
        {
          "internalType": "bytes32",
          "name": "",
          "type": "bytes32"
        }
      ],
      "stateMutability": "view",
      "type": "function"
    },
    {
      "inputs": [],
      "name": "NOTARY_ROLE",
      "outputs": [
        {
          "internalType": "bytes32",
          "name": "",
          "type": "bytes32"
        }
      ],
      "stateMutability": "view",
      "type": "function"
    },
    {
      "inputs": [
        {
          "internalType": "uint256",
          "name": "_escrowId",
          "type": "uint256"
        }
      ],
      "name": "approveAsBuyer",
      "outputs": [],
      "stateMutability": "nonpayable",
      "type": "function"
    },
    {
      "inputs": [
        {
          "internalType": "uint256",
          "name": "_escrowId",
          "type": "uint256"
        }
      ],
      "name": "approveAsNotary",
      "outputs": [],
      "stateMutability": "nonpayable",
      "type": "function"
    },
    {
      "inputs": [
        {
          "internalType": "uint256",
          "name": "_escrowId",
          "type": "uint256"
        }
      ],
      "name": "approveAsSeller",
      "outputs": [],
      "stateMutability": "nonpayable",
      "type": "function"
    },
    {
      "inputs": [
        {
          "internalType": "uint256",
          "name": "_escrowId",
          "type": "uint256"
        }
      ],
      "name": "cancelEscrow",
      "outputs": [],
      "stateMutability": "nonpayable",
      "type": "function"
    },
    {
      "inputs": [
        {
          "internalType": "address",
          "name": "_buyer",
          "type": "address"
        },
        {
          "internalType": "address",
          "name": "_propertyContract",
          "type": "address"
        },
        {
          "internalType": "uint256",
          "name": "_assetId",
          "type": "uint256"
        },
        {
          "internalType": "uint256",
          "name": "_shares",
          "type": "uint256"
        },
        {
          "internalType": "uint256",
          "name": "_totalPrice",
          "type": "uint256"
        },
        {
          "internalType": "address",
          "name": "_paymentToken",
          "type": "address"
        }
      ],
      "name": "createFractionalEscrow",
      "outputs": [
        {
          "internalType": "uint256",
          "name": "",
          "type": "uint256"
        }
      ],
      "stateMutability": "nonpayable",
      "type": "function"
    },
    {
      "inputs": [
        {
          "internalType": "address",
          "name": "_buyer",
          "type": "address"
        },
        {
          "internalType": "address",
          "name": "_propertyContract",
          "type": "address"
        },
        {
          "internalType": "uint256",
          "name": "_tokenId",
          "type": "uint256"
        },
        {
          "internalType": "uint256",
          "name": "_price",
          "type": "uint256"
        },
        {
          "internalType": "address",
          "name": "_paymentToken",
          "type": "address"
        },
        {
          "internalType": "address",
          "name": "_notary",
          "type": "address"
        }
      ],
      "name": "createPropertyEscrow",
      "outputs": [
        {
          "internalType": "uint256",
          "name": "",
          "type": "uint256"
        }
      ],
      "stateMutability": "nonpayable",
      "type": "function"
    },
    {
      "inputs": [],
      "name": "defaultTimelock",
      "outputs": [
        {
          "internalType": "uint256",
          "name": "",
          "type": "uint256"
        }
      ],
      "stateMutability": "view",
      "type": "function"
    },
    {
      "inputs": [],
      "name": "escrowFeePercent",
      "outputs": [
        {
          "internalType": "uint256",
          "name": "",
          "type": "uint256"
        }
      ],
      "stateMutability": "view",
      "type": "function"
    },
    {
      "inputs": [
        {
          "internalType": "uint256",
          "name": "",
          "type": "uint256"
        }
      ],
      "name": "escrows",
      "outputs": [
        {
          "internalType": "enum PropertyEscrow.EscrowType",
          "name": "escrowType",
          "type": "uint8"
        },
        {
          "internalType": "enum PropertyEscrow.EscrowStatus",
          "name": "status",
          "type": "uint8"
        },
        {
          "internalType": "address",
          "name": "seller",
          "type": "address"
        },
        {
          "internalType": "address",
          "name": "buyer",
          "type": "address"
        },
        {
          "internalType": "address",
          "name": "propertyContract",
          "type": "address"
        },
        {
          "internalType": "uint256",
          "name": "tokenId",
          "type": "uint256"
        },
        {
          "internalType": "uint256",
          "name": "amount",
          "type": "uint256"
        },
        {
          "internalType": "uint256",
          "name": "price",
          "type": "uint256"
        },
        {
          "internalType": "address",
          "name": "paymentToken",
          "type": "address"
        },
        {
          "internalType": "uint256",
          "name": "depositAmount",
          "type": "uint256"
        },
        {
          "internalType": "uint256",
          "name": "createdAt",
          "type": "uint256"
        },
        {
          "internalType": "uint256",
          "name": "fundedAt",
          "type": "uint256"
        },
        {
          "internalType": "uint256",
          "name": "completedAt",
          "type": "uint256"
        },
        {
          "internalType": "string",
          "name": "documentHash",
          "type": "string"
        },
        {
          "internalType": "address",
          "name": "notary",
          "type": "address"
        },
        {
          "internalType": "bool",
          "name": "sellerApproved",
          "type": "bool"
        },
        {
          "internalType": "bool",
          "name": "buyerApproved",
          "type": "bool"
        },
        {
          "internalType": "bool",
          "name": "notaryApproved",
          "type": "bool"
        },
        {
          "internalType": "uint256",
          "name": "escrowFee",
          "type": "uint256"
        }
      ],
      "stateMutability": "view",
      "type": "function"
    },
    {
      "inputs": [],
      "name": "feeRecipient",
      "outputs": [
        {
          "internalType": "address",
          "name": "",
          "type": "address"
        }
      ],
      "stateMutability": "view",
      "type": "function"
    },
    {
      "inputs": [
        {
          "internalType": "uint256",
          "name": "_escrowId",
          "type": "uint256"
        }
      ],
      "name": "fundEscrow",
      "outputs": [],
      "stateMutability": "nonpayable",
      "type": "function"
    },
    {
      "inputs": [
        {
          "internalType": "bytes32",
          "name": "role",
          "type": "bytes32"
        }
      ],
      "name": "getRoleAdmin",
      "outputs": [
        {
          "internalType": "bytes32",
          "name": "",
          "type": "bytes32"
        }
      ],
      "stateMutability": "view",
      "type": "function"
    },
    {
      "inputs": [
        {
          "internalType": "address",
          "name": "_user",
          "type": "address"
        }
      ],
      "name": "getUserEscrows",
      "outputs": [
        {
          "internalType": "uint256[]",
          "name": "",
          "type": "uint256[]"
        }
      ],
      "stateMutability": "view",
      "type": "function"
    },
    {
      "inputs": [
        {
          "internalType": "bytes32",
          "name": "role",
          "type": "bytes32"
        },
        {
          "internalType": "address",
          "name": "account",
          "type": "address"
        }
      ],
      "name": "grantRole",
      "outputs": [],
      "stateMutability": "nonpayable",
      "type": "function"
    },
    {
      "inputs": [
        {
          "internalType": "bytes32",
          "name": "role",
          "type": "bytes32"
        },
        {
          "internalType": "address",
          "name": "account",
          "type": "address"
        }
      ],
      "name": "hasRole",
      "outputs": [
        {
          "internalType": "bool",
          "name": "",
          "type": "bool"
        }
      ],
      "stateMutability": "view",
      "type": "function"
    },
    {
      "inputs": [
        {
          "internalType": "uint256",
          "name": "",
          "type": "uint256"
        },
        {
          "internalType": "address",
          "name": "",
          "type": "address"
        }
      ],
      "name": "hasWithdrawn",
      "outputs": [
        {
          "internalType": "bool",
          "name": "",
          "type": "bool"
        }
      ],
      "stateMutability": "view",
      "type": "function"
    },
    {
      "inputs": [
        {
          "internalType": "uint256",
          "name": "",
          "type": "uint256"
        },
        {
          "internalType": "uint256",
          "name": "",
          "type": "uint256"
        }
      ],
      "name": "milestones",
      "outputs": [
        {
          "internalType": "string",
          "name": "description",
          "type": "string"
        },
        {
          "internalType": "uint256",
          "name": "releaseAmount",
          "type": "uint256"
        },
        {
          "internalType": "bool",
          "name": "completed",
          "type": "bool"
        },
        {
          "internalType": "uint256",
          "name": "completedAt",
          "type": "uint256"
        },
        {
          "internalType": "string",
          "name": "proofHash",
          "type": "string"
        }
      ],
      "stateMutability": "view",
      "type": "function"
    },
    {
      "inputs": [
        {
          "internalType": "uint256",
          "name": "_escrowId",
          "type": "uint256"
        },
        {
          "internalType": "string",
          "name": "_reason",
          "type": "string"
        }
      ],
      "name": "raiseDispute",
      "outputs": [],
      "stateMutability": "nonpayable",
      "type": "function"
    },
    {
      "inputs": [
        {
          "internalType": "bytes32",
          "name": "role",
          "type": "bytes32"
        },
        {
          "internalType": "address",
          "name": "callerConfirmation",
          "type": "address"
        }
      ],
      "name": "renounceRole",
      "outputs": [],
      "stateMutability": "nonpayable",
      "type": "function"
    },
    {
      "inputs": [
        {
          "internalType": "uint256",
          "name": "_escrowId",
          "type": "uint256"
        },
        {
          "internalType": "bool",
          "name": "_releaseToSeller",
          "type": "bool"
        }
      ],
      "name": "resolveDispute",
      "outputs": [],
      "stateMutability": "nonpayable",
      "type": "function"
    },
    {
      "inputs": [
        {
          "internalType": "bytes32",
          "name": "role",
          "type": "bytes32"
        },
        {
          "internalType": "address",
          "name": "account",
          "type": "address"
        }
      ],
      "name": "revokeRole",
      "outputs": [],
      "stateMutability": "nonpayable",
      "type": "function"
    },
    {
      "inputs": [
        {
          "internalType": "uint256",
          "name": "_escrowId",
          "type": "uint256"
        },
        {
          "internalType": "string",
          "name": "_documentHash",
          "type": "string"
        }
      ],
      "name": "submitDocuments",
      "outputs": [],
      "stateMutability": "nonpayable",
      "type": "function"
    },
    {
      "inputs": [
        {
          "internalType": "bytes4",
          "name": "interfaceId",
          "type": "bytes4"
        }
      ],
      "name": "supportsInterface",
      "outputs": [
        {
          "internalType": "bool",
          "name": "",
          "type": "bool"
        }
      ],
      "stateMutability": "view",
      "type": "function"
    },
    {
      "inputs": [
        {
          "internalType": "uint256",
          "name": "_feePercent",
          "type": "uint256"
        }
      ],
      "name": "updateEscrowFee",
      "outputs": [],
      "stateMutability": "nonpayable",
      "type": "function"
    },
    {
      "inputs": [
        {
          "internalType": "uint256",
          "name": "_timelock",
          "type": "uint256"
        }
      ],
      "name": "updateTimelock",
      "outputs": [],
      "stateMutability": "nonpayable",
      "type": "function"
    },
    {
      "inputs": [
        {
          "internalType": "address",
          "name": "",
          "type": "address"
        },
        {
          "internalType": "uint256",
          "name": "",
          "type": "uint256"
        }
      ],
      "name": "userEscrows",
      "outputs": [
        {
          "internalType": "uint256",
          "name": "",
          "type": "uint256"
        }
      ],
      "stateMutability": "view",
      "type": "function"
    }
  ],
  "bytecode": "0x6080346200009657601f62002b5538819003918201601f19168301916001600160401b038311848410176200009b578084926020946040528339810103126200009657516001600160a01b03811690819003620000965760018055606460075562278d006009556200007133620000b1565b50600880546001600160a01b031916919091179055604051612a129081620001438239f35b600080fd5b634e487b7160e01b600052604160045260246000fd5b6001600160a01b031660008181527fad3228b676f7d3cd4284a5443f17f1962b36e491b30a40b2405849e597ba5fb5602052604081205490919060ff166200013e57818052816020526040822081835260205260408220600160ff1982541617905533917f2f8788117e7eff1d82e926ec794901d17c78024a50270940304540a733656f0d8180a4600190565b509056fe6080604052600436101561001257600080fd5b6000803560e01c8063012f52ee14611d5757806301ffc9a714611d005780631c376c6314611c60578063248a9ca314611c345780632c3ce5fa14611c165780632f2ff15d14611bd95780633031ae9914611a8c57806334b25ee21461174157806336568abe146116f95780633d2098d914611699578063469048401461167057806354458782146115a85780635aef573c146114df5780635ccea85e1461143157806377a83a711461131e5780637f944dd0146112c857806391d148541461127d57806394cec7a7146112315780639cea0787146111f65780639ea3952a14610dc8578063a217fddf14610dac578063b46ad53314610d8e578063bfc8c95814610b66578063c2a12a9114610537578063c48b0baa146104fc578063c9c31af5146103b2578063d547741f14610371578063e0182436146101815763fa1ccffd1461015c57600080fd5b3461017e57602036600319011261017e57610175612160565b60043560095580f35b80fd5b503461017e5760208060031936011261036d57600435906101a06123d2565b818352600381526040832090815460ff60018060a01b0391828160101c163314801561035e575b6101d0906124d1565b60081c16600781101561034a57806101ed6004600193141561291e565b1461022f575b5050805461ff00191661050017905533907f6f44c80719cb2f74bdbd68b7af10147acb9b52e2675ad02f9c87f098599599388380a36001805580f35b61024060098401546009549061246e565b42118015610322575b156102e95760068301546001840154600785015460405163a9059cbb60e01b81529184166001600160a01b0316600483015260248201529183918391168188816044810103925af19081156102de576102aa9286926102b1575b50506129a0565b38806101f3565b6102d09250803d106102d7575b6102c88183611f72565b81019061247b565b38806102a3565b503d6102be565b6040513d87823e3d90fd5b60405162461bcd60e51b815260048101839052601160248201527010d85b9b9bdd0818d85b98d95b081e595d607a1b6044820152606490fd5b50600c83015460ff8160a01c16908161033c575b50610249565b60ff915060a81c1638610336565b634e487b7160e01b86526021600452602486fd5b506001850154831633146101c7565b5080fd5b503461017e57604036600319011261017e576103ae60043561039161207a565b90808452836020526103a9600160408620015461219a565b61223e565b5080f35b503461017e5760208060031936011261036d576004356103d06123d2565b808352600382526040832060ff815460081c1660078110156104e8576103f690156123f5565b60018101546001600160a01b0393906104129085163314612432565b6104256005830154600d8401549061246e565b60068301546040516323b872dd60e01b81523360048201523060248201526044810183905291959193918391859160649183918b91165af19283156104dd577f4a2cd88ec7a748d5b20b3512d7249c67745777b219009075c745923684e9653d936104979188916104c0575b50612493565b84600782015542600982015561010061ff00198254161790556040519384523393a36001805580f35b6104d79150843d86116102d7576102c88183611f72565b38610491565b6040513d88823e3d90fd5b634e487b7160e01b85526021600452602485fd5b503461017e578060031936011261017e5760206040517f82dc1ec5ffcc1ce66f6c1c31b0ec106422173af966c099db66124841894b3c8a8152f35b503461017e5760c036600319011261017e57610551612090565b9061055a61207a565b91608435916001600160a01b0383168303610b61576105776120a6565b926105806123d2565b6001600160a01b038316151580610b4e575b61059b906122b3565b6001600160a01b03851615610b09576105b760643515156122ef565b6001600160a01b03811615610acc576040516331a9108f60e11b815260443560048201526020816024816001600160a01b038a165afa908115610ac1578391610a7b575b50336001600160a01b0390911603610a415761061860025461232b565b938460025561271061062e600754606435612350565b04916040519661063d88611f39565b84885260208801859052336040808a01919091526001600160a01b0387811660608b015291821660808a015260443560a08a0152600160c08a015260643560e08a0152911661010088015261012087018490524261014088015261016087018490526101808701849052516106b181611f56565b8381526101a087015260018060a01b03166101c0860152816101e086015281610200860152816102208601526102408501528281526003602052604081209380516003811015610a2d5760ff8019875416911617855560208101516007811015610a2d5761071f9086612363565b6040810151855462010000600160b01b03191660109190911b62010000600160b01b031617855560608101516001860180546001600160a01b03199081166001600160a01b03938416179091556080830151600288018054831691841691909117905560a0830151600388015560c0830151600488015560e083015160058801556101008301516006880180549092169216919091179055610120810151600786015561014081015160088601556101608101516009860155610180810151600a8601556101a081015180519067ffffffffffffffff8211610a1957610808600b880154611ed5565b601f81116109d4575b50916020969186938890601f83116001146109595786938360409694600d94610240946109039b9261094e575b50508160011b916000199060031b1c191617600b8501555b6101c0810151600c850180546101e084015160ff60a01b90151560a01b166001600160a01b039093166001600160a81b0319909116179190911781556108d5905b610200830151815460ff60a81b191690151560a81b60ff60a81b16178155610220830151815460ff60b01b191690151560b01b60ff60b01b16179055565b0151910155338152600587526108ed83838320612398565b6001600160a01b03851681526005875220612398565b60405190600082526064358483015260018060a01b031690827fc5debd92dbd9cea0979dc47afa05eaf330d19b047a12b975a08a05ea4cf06ce660403393a460018055604051908152f35b01519050388061083e565b90600b8501875289872091875b601f19851681106109ba575093600184600d94610240946109039b9860409a98601f198116106109a1575b505050811b01600b850155610856565b015160001960f88460031b161c19169055388080610991565b8183015184558a9750600190930192918b01918b01610966565b600b8801855260208520601f840160051c810160208510610a12575b601f830160051c82018110610a06575050610811565b600081556001016109f0565b50806109f0565b634e487b7160e01b84526041600452602484fd5b634e487b7160e01b83526021600452602483fd5b60405162461bcd60e51b81526020600482015260126024820152712737ba10383937b832b93a3c9037bbb732b960711b6044820152606490fd5b90506020813d602011610ab9575b81610a9660209383611f72565b81010312610ab557516001600160a01b0381168103610ab557386105fb565b8280fd5b3d9150610a89565b6040513d85823e3d90fd5b60405162461bcd60e51b815260206004820152601560248201527424b73b30b634b2103830bcb6b2b73a103a37b5b2b760591b6044820152606490fd5b60405162461bcd60e51b815260206004820152601960248201527f496e76616c69642070726f706572747920636f6e7472616374000000000000006044820152606490fd5b506001600160a01b038316331415610592565b600080fd5b503461017e57610b75366120bc565b919080825260209260038452604083209384549460ff8660081c1695600787101561034a576001809703610d5557610bc49060018060a01b03809160101c163314908115610d45575b506124d1565b600b8101835167ffffffffffffffff8111610d3157610be38254611ed5565b601f8111610cea575b508397601f8211600114610c6b57818091899a7f5af0fdcce2d0b97962b66d6a003222c307f1b5f30588317c152a1af58e8c50eb999a93610c60575b501b916000199060031b1c19161790555b61020061ff0019825416179055610c5a60405192828493845283019061203a565b0390a280f35b880151925038610c28565b90601f1981169883895285892099895b818110610cd5575090827f5af0fdcce2d0b97962b66d6a003222c307f1b5f30588317c152a1af58e8c50eb999a9b9210610cbc575b5050811b019055610c39565b87015160001960f88460031b161c191690553880610cb0565b888301518c559a84019a918701918701610c7b565b828852848820601f830160051c810191868410610d27575b601f0160051c019089905b828110610d1b575050610bec565b60008155018990610d0d565b9091508190610d02565b634e487b7160e01b87526041600452602487fd5b9050600c83015416331438610bbe565b60405162461bcd60e51b8152600481018490526011602482015270115cd8dc9bddc81b9bdd08199d5b991959607a1b6044820152606490fd5b503461017e578060031936011261017e576020600954604051908152f35b503461017e578060031936011261017e57602090604051908152f35b503461017e5760c036600319011261017e57610de2612090565b90610deb61207a565b91610df46120a6565b91610dfd6123d2565b6001600160a01b0382161515806111e3575b610e18906122b3565b606435156111a757610e2d60843515156122ef565b610e3860025461232b565b9283600255612710610e4e600754608435612350565b049060405195610e5d87611f39565b6001875260208701849052336040808901919091526001600160a01b0386811660608a0152918216608089015260443560a089015260643560c089015260843560e089015291166101008701526101208601839052426101408701526101608601839052610180860183905251610ed381611f56565b8281526101a0860152816101c0860152816101e086015281610200860152816102208601526102408501528281526003602052604081209380516003811015610a2d5760ff8019875416911617855560208101516007811015610a2d57610f3a9086612363565b6040810151855462010000600160b01b03191660109190911b62010000600160b01b031617855560608101516001860180546001600160a01b03199081166001600160a01b03938416179091556080830151600288018054831691841691909117905560a0830151600388015560c0830151600488015560e083015160058801556101008301516006880180549092169216919091179055610120810151600786015561014081015160088601556101608101516009860155610180810151600a8601556101a081015180519067ffffffffffffffff8211610a1957611023600b880154611ed5565b601f8111611162575b50916020969186938890601f83116001146111015786938360409694600d94610240946110b69b9261094e575050600019600383901b1c191660019190911b17600b8501556101c0810151600c850180546101e084015160ff60a01b90151560a01b166001600160a01b039093166001600160a81b0319909116179190911781556108d590610897565b60405190600182526084358483015260018060a01b031690827fc5debd92dbd9cea0979dc47afa05eaf330d19b047a12b975a08a05ea4cf06ce660403393a460018055604051908152f35b90600b8501875289872091875b601f1985168110611148575093600184600d94610240946110b69b9860409a98601f198116106109a157505050811b01600b850155610856565b8183015184558a9750600190930192918b01918b0161110e565b600b8801855260208520601f840160051c8101602085106111a0575b601f830160051c8201811061119457505061102c565b6000815560010161117e565b508061117e565b60405162461bcd60e51b8152602060048201526014602482015273125b9d985b1a59081cda185c9948185b5bdd5b9d60621b6044820152606490fd5b506001600160a01b038216331415610e0f565b503461017e578060031936011261017e5760206040517f12f2a202ec5999866a94474e99d46b7bf4d80cd7bfd1b76112ca747570b7d94d8152f35b503461017e57604036600319011261017e57604061124d61207a565b9160043581526006602052209060018060a01b0316600052602052602060ff604060002054166040519015158152f35b503461017e57604036600319011261017e57604061129961207a565b91600435815280602052209060018060a01b0316600052602052602060ff604060002054166040519015158152f35b503461017e57604036600319011261017e576112e2612090565b6001600160a01b031681526005602052604081208054602435929083101561017e5760206113108484612132565b90546040519160031b1c8152f35b503461017e57602036600319011261017e576004358082526003602052604082208054601081901c6001600160a01b031633036113fb5760081c60ff1660078110156113e7576113e492916113786002600c93101561250e565b01805461138b60ff8260a01c161561255a565b600160a01b9060ff60a01b191617905560405160208152600660208201526529a2a62622a960d11b6040820152817f808cec9032af71891ec39ede41658753de58f25263a86b30295177928120c74760603393a3612599565b80f35b634e487b7160e01b84526021600452602484fd5b60405162461bcd60e51b815260206004820152600e60248201526d2737ba103a34329039b2b63632b960911b6044820152606490fd5b503461017e5760208060031936011261036d576001600160a01b03611454612090565b168252600581526040822060405192838383549182815201908193835284832090835b8181106114cb575050508461148d910385611f72565b60405193838594850191818652518092526040850193925b8281106114b457505050500390f35b8351855286955093810193928101926001016114a5565b825484529286019260019283019201611477565b503461017e576114ee366120bc565b90808352600360205260408320805461151c60018060a01b03808360101c16331490811561159857506124d1565b60ff8160081c16600781101561034a5790611546826004610600941415908161158c575b506123f5565b61ff0019161790557fc523357a17c19a0da11b08e9f4d7e4fbed304cbe1be1d3583e4d5a677d75d70960405160208152806115863395602083019061203a565b0390a380f35b60059150141538611540565b9050600184015416331438610bbe565b503461017e57602036600319011261017e576004358082526003602052604082206115e060018060a01b036001830154163314612432565b60ff815460081c1660078110156113e7576113e492916116056002600c93101561250e565b01805461161860ff8260a81c161561255a565b600160a81b9060ff60a81b1916179055604051602081526005602082015264212aaca2a960d91b6040820152817f808cec9032af71891ec39ede41658753de58f25263a86b30295177928120c74760603393a3612599565b503461017e578060031936011261017e576008546040516001600160a01b039091168152602090f35b503461017e57602036600319011261017e576004356116b6612160565b61012c81116116c55760075580f35b60405162461bcd60e51b815260206004820152600c60248201526b08ccaca40e8dede40d0d2ced60a31b6044820152606490fd5b503461017e57604036600319011261017e5761171361207a565b336001600160a01b0382160361172f576103ae9060043561223e565b60405163334bd91960e11b8152600490fd5b503461017e57604036600319011261017e5760243590600435821515830361036d577f12f2a202ec5999866a94474e99d46b7bf4d80cd7bfd1b76112ca747570b7d94d80835260209083825260408420338552825260ff60408520541615611a6e5750818352600381526040832060ff815460081c1660078110156104e857600603611a3a5760068101546001600160a01b039590861690156119b4578154600583015460405163a9059cbb60e01b815260109290921c88166001600160a01b031660048301526024820152838160448189865af19081156104dd579061182e91879161199d5750612493565b815460ff811660038110156119895715611902575b50829061188a9495965b600854600d85015460405163a9059cbb60e01b8152929091166001600160a01b031660048301526024820152948591908290899082906044820190565b03925af19283156102de577ff487d4e13e32569d69ec2608b5b1530450d715b84e0c81d0077b5b7e766db1d1936118c89187916118e5575b5061295e565b61040061ff0019825416178155600a42910155604051428152a280f35b6118fc9150843d86116102d7576102c88183611f72565b386118c2565b866002840154168760018501541690600385015492813b1561198557604051632142170760e11b81526001600160a01b0360109290921c8b168216600482015292166024830152604482019290925290869082908183816064810103925af180156104dd5715611843579061188a949561197c8593611f0f565b95945090611843565b8880fd5b634e487b7160e01b87526021600452602487fd5b6104d79150853d87116102d7576102c88183611f72565b6001820154600783015460405163a9059cbb60e01b81529188166001600160a01b03166004830152602482015294959394939083856044818a855af1918215611a2f57611a0d859361188a978a91611a12575b506129a0565b61184d565b611a299150853d87116102d7576102c88183611f72565b38611a07565b6040513d89823e3d90fd5b60405162461bcd60e51b815260048101839052600c60248201526b139bdd08191a5cdc1d5d195960a21b6044820152606490fd5b6044906040519063e2517d3f60e01b82523360048301526024820152fd5b503461017e576020908160031936011261017e576004357f82dc1ec5ffcc1ce66f6c1c31b0ec106422173af966c099db66124841894b3c8a80835282845260408320338452845260ff60408420541615611a6e57508082526003835260408220600c81018054949190336001600160a01b03871603611b9e5781549560ff8760081c16600781101561198957916113e4969791611b2f600261030095101561250e565b611b3f60ff8260b01c161561255a565b600160b01b9060ff60b01b191617905561ff001916179055600660405191808352820152654e4f5441525960d01b6040820152817f808cec9032af71891ec39ede41658753de58f25263a86b30295177928120c74760603393a3612599565b60405162461bcd60e51b81526004810184905260136024820152724e6f742061737369676e6564206e6f7461727960681b6044820152606490fd5b503461017e57604036600319011261017e576103ae600435611bf961207a565b9080845283602052611c11600160408620015461219a565b6121c0565b503461017e578060031936011261017e576020600754604051908152f35b503461017e57602036600319011261017e57600160406020926004358152808452200154604051908152f35b503461017e57604036600319011261017e5760243560043582526004602052604082208054821015610ab557602083600592611cdd955220910201611cfc611ca782611f94565b9160018101549060ff60028201541690611cc8600460038301549201611f94565b9160405196879660a0885260a088019061203a565b936020870152151560408601526060850152838203608085015261203a565b0390f35b503461017e57602036600319011261017e5760043563ffffffff60e01b811680910361036d57602090637965db0b60e01b8114908115611d46575b506040519015158152f35b6301ffc9a760e01b14905082611d3b565b503461017e57602036600319011261017e57600435815260036020526040812080549060018060a01b0360018201541660018060a01b0360028301541660038301546004840154600585015460018060a01b03600687015416600787015490600888015492600989015494600a8a015496611dd4600b8c01611f94565b98600d600c8d01549c01549a6040519d600360ff82161015611ec0578e60ff82169052600760ff8260081c161015611ec0578e9f508e611e7e9b9997959360ff9d9b99979593838f60a09560081c166020850152600180861b039060101c16604084015260608301526080820152015260c08d015260e08c01526101008b01526101208a0152610140890152610160880152610180870152610260806101a088015286019061203a565b9260018060a01b0381166101c0860152818160a01c1615156101e0860152818160a81c16151561020086015260b01c1615156102208401526102408301520390f35b50634e487b7160e01b8f52602160045260248ffd5b90600182811c92168015611f05575b6020831014611eef57565b634e487b7160e01b600052602260045260246000fd5b91607f1691611ee4565b67ffffffffffffffff8111611f2357604052565b634e487b7160e01b600052604160045260246000fd5b610260810190811067ffffffffffffffff821117611f2357604052565b6020810190811067ffffffffffffffff821117611f2357604052565b90601f8019910116810190811067ffffffffffffffff821117611f2357604052565b9060405191826000825492611fa884611ed5565b9081845260019485811690816000146120175750600114611fd4575b5050611fd292500383611f72565b565b9093915060005260209081600020936000915b818310611fff575050611fd293508201013880611fc4565b85548884018501529485019487945091830191611fe7565b915050611fd294506020925060ff191682840152151560051b8201013880611fc4565b919082519283825260005b848110612066575050826000602080949584010152601f8019910116010190565b602081830181015184830182015201612045565b602435906001600160a01b0382168203610b6157565b600435906001600160a01b0382168203610b6157565b60a435906001600160a01b0382168203610b6157565b906040600319830112610b61576004359167ffffffffffffffff602435818111610b615782602382011215610b61578060040135918211611f23576040519261210f601f8401601f191660200185611f72565b82845260248383010111610b615781600092602460209301838601378301015290565b805482101561214a5760005260206000200190600090565b634e487b7160e01b600052603260045260246000fd5b3360009081527fad3228b676f7d3cd4284a5443f17f1962b36e491b30a40b2405849e597ba5fb5602052604081205460ff1615611a6e5750565b80600052600060205260406000203360005260205260ff6040600020541615611a6e5750565b9060009180835282602052604083209160018060a01b03169182845260205260ff6040842054161560001461223957808352826020526040832082845260205260408320600160ff198254161790557f2f8788117e7eff1d82e926ec794901d17c78024a50270940304540a733656f0d339380a4600190565b505090565b9060009180835282602052604083209160018060a01b03169182845260205260ff6040842054166000146122395780835282602052604083208284526020526040832060ff1981541690557ff6391f5c32d9c69d2a47ea670b442974b53935d1edc7fd64eb21e047a839171b339380a4600190565b156122ba57565b60405162461bcd60e51b815260206004820152600d60248201526c24b73b30b634b210313abcb2b960991b6044820152606490fd5b156122f657565b60405162461bcd60e51b815260206004820152600d60248201526c496e76616c696420707269636560981b6044820152606490fd5b600019811461233a5760010190565b634e487b7160e01b600052601160045260246000fd5b8181029291811591840414171561233a57565b9060078110156123825761ff0082549160081b169061ff001916179055565b634e487b7160e01b600052602160045260246000fd5b805468010000000000000000811015611f23576123ba91600182018155612132565b819291549060031b91821b91600019901b1916179055565b6002600154146123e3576002600155565b604051633ee5aeb560e01b8152600490fd5b156123fc57565b60405162461bcd60e51b815260206004820152600e60248201526d496e76616c69642073746174757360901b6044820152606490fd5b1561243957565b60405162461bcd60e51b815260206004820152600d60248201526c2737ba103a343290313abcb2b960991b6044820152606490fd5b9190820180921161233a57565b90816020910312610b6157518015158103610b615790565b1561249a57565b60405162461bcd60e51b815260206004820152600f60248201526e151c985b9cd9995c8819985a5b1959608a1b6044820152606490fd5b156124d857565b60405162461bcd60e51b815260206004820152600e60248201526d139bdd08185d5d1a1bdc9a5e995960921b6044820152606490fd5b1561251557565b60405162461bcd60e51b815260206004820152601760248201527f446f63756d656e7473206e6f74207375626d69747465640000000000000000006044820152606490fd5b1561256157565b60405162461bcd60e51b815260206004820152601060248201526f105b1c9958591e48185c1c1c9bdd995960821b6044820152606490fd5b9060009180835260206003815260408085208560ff918281541660038110156128b857806128e75750600c9150015481808260a01c1691826128d9575b826128cc575b50505b6125ec575b505050509050565b83865260038352818620908154818160081c169060078210156128b857600560049261261a8482141561291e565b146128825760068401546005850154865163a9059cbb60e01b8082526001600160a01b0360109590951c85168683019081526020810193909352928416918990829060409082900301818f865af1908115612878578c9161285b575b501561281857600854600d87015488519384529084166001600160a01b031685840190815260208101919091528891839182908e90829060400103925af190811561280e57906126cc918b916127f7575061295e565b835492831660038110156127e4571561272a575b5050507ff487d4e13e32569d69ec2608b5b1530450d715b84e0c81d0077b5b7e766db1d19394955061040061ff0019825416178155600a4291015551428152a280388080806125e4565b90818992600286015416908060018701541694600387015490833b156127e0578851632142170760e11b81526001600160a01b0360109290921c909316811694830194855290951660208401526040830194909452839182908490829060600103925af180156127d6577ff487d4e13e32569d69ec2608b5b1530450d715b84e0c81d0077b5b7e766db1d1959697506127c7575b869594816126e0565b6127d090611f0f565b386127be565b83513d89823e3d90fd5b8580fd5b634e487b7160e01b8a526021835260248afd5b6118fc9150883d8a116102d7576102c88183611f72565b86513d8c823e3d90fd5b865162461bcd60e51b8152808501899052601760248201527f5061796d656e74207472616e73666572206661696c65640000000000000000006044820152606490fd5b6128729150893d8b116102d7576102c88183611f72565b38612676565b88513d8e823e3d90fd5b845162461bcd60e51b8152808301879052601060248201526f115cd8dc9bddc818d85b98d95b1b195960821b6044820152606490fd5b634e487b7160e01b89526021600452602489fd5b60b01c16905081386125dc565b9150808260a81c16916125d6565b6001146128f5575b506125df565b600c9150015481808260a01c169182612911575b5050386128ef565b60a81c1690508138612909565b1561292557565b60405162461bcd60e51b8152602060048201526011602482015270105b1c9958591e4818dbdb5c1b195d1959607a1b6044820152606490fd5b1561296557565b60405162461bcd60e51b8152602060048201526013602482015272119959481d1c985b9cd9995c8819985a5b1959606a1b6044820152606490fd5b156129a757565b60405162461bcd60e51b815260206004820152600d60248201526c1499599d5b990819985a5b1959609a1b6044820152606490fdfea2646970667358221220156b73f07ba1817dc4ca6888d22e90713c6cb376e3b20e26cc87958d1e3024a164736f6c63430008140033",
  "linkReferences": {},
  "deployedLinkReferences": {}
}