{
  "_format": "hh-sol-artifact-1",
  "contractName": "FractionalProperty",
  "sourceName": "contracts/FractionalProperty.sol",
  "abi": [
    {
      "inputs": [
        {
          "internalType": "address",
          "name": "_feeRecipient",
          "type": "address"
        },
        {
          "internalType": "string",
          "name": "_uri",
          "type": "string"
        }
      ],
      "stateMutability": "nonpayable",
      "type": "constructor"
    },
    {
      "inputs": [],
      "name": "AccessControlBadConfirmation",
      "type": "error"
    },
    {
      "inputs": [
        {
          "internalType": "address",
          "name": "account",
          "type": "address"
        },
        {
          "internalType": "bytes32",
          "name": "neededRole",
          "type": "bytes32"
        }
      ],
      "name": "AccessControlUnauthorizedAccount",
      "type": "error"
    },
    {
      "inputs": [
        {
          "internalType": "address",
          "name": "sender",
          "type": "address"
        },
        {
          "internalType": "uint256",
          "name": "balance",
          "type": "uint256"
        },
        {
          "internalType": "uint256",
          "name": "needed",
          "type": "uint256"
        },
        {
          "internalType": "uint256",
          "name": "tokenId",
          "type": "uint256"
        }
      ],
      "name": "ERC1155InsufficientBalance",
      "type": "error"
    },
    {
      "inputs": [
        {
          "internalType": "address",
          "name": "approver",
          "type": "address"
        }
      ],
      "name": "ERC1155InvalidApprover",
      "type": "error"
    },
    {
      "inputs": [
        {
          "internalType": "uint256",
          "name": "idsLength",
          "type": "uint256"
        },
        {
          "internalType": "uint256",
          "name": "valuesLength",
          "type": "uint256"
        }
      ],
      "name": "ERC1155InvalidArrayLength",
      "type": "error"
    },
    {
      "inputs": [
        {
          "internalType": "address",
          "name": "operator",
          "type": "address"
        }
      ],
      "name": "ERC1155InvalidOperator",
      "type": "error"
    },
    {
      "inputs": [
        {
          "internalType": "address",
          "name": "receiver",
          "type": "address"
        }
      ],
      "name": "ERC1155InvalidReceiver",
      "type": "error"
    },
    {
      "inputs": [
        {
          "internalType": "address",
          "name": "sender",
          "type": "address"
        }
      ],
      "name": "ERC1155InvalidSender",
      "type": "error"
    },
    {
      "inputs": [
        {
          "internalType": "address",
          "name": "operator",
          "type": "address"
        },
        {
          "internalType": "address",
          "name": "owner",
          "type": "address"
        }
      ],
      "name": "ERC1155MissingApprovalForAll",
      "type": "error"
    },
    {
      "inputs": [],
      "name": "EnforcedPause",
      "type": "error"
    },
    {
      "inputs": [],
      "name": "ExpectedPause",
      "type": "error"
    },
    {
      "inputs": [],
      "name": "ReentrancyGuardReentrantCall",
      "type": "error"
    },
    {
      "anonymous": false,
      "inputs": [
        {
          "indexed": true,
          "internalType": "address",
          "name": "account",
          "type": "address"
        },
        {
          "indexed": true,
          "internalType": "address",
          "name": "operator",
          "type": "address"
        },
        {
          "indexed": false,
          "internalType": "bool",
          "name": "approved",
          "type": "bool"
        }
      ],
      "name": "ApprovalForAll",
      "type": "event"
    },
    {
      "anonymous": false,
      "inputs": [
        {
          "indexed": true,
          "internalType": "uint256",
          "name": "assetId",
          "type": "uint256"
        },
        {
          "indexed": false,
          "internalType": "uint256",
          "name": "propertyTokenId",
          "type": "uint256"
        },
        {
          "indexed": false,
          "internalType": "uint256",
          "name": "totalShares",
          "type": "uint256"
        },
        {
          "indexed": false,
          "internalType": "uint256",
          "name": "sharePriceUSD",
          "type": "uint256"
        }
      ],
      "name": "AssetFractionalized",
      "type": "event"
    },
    {
      "anonymous": false,
      "inputs": [
        {
          "indexed": true,
          "internalType": "uint256",
          "name": "assetId",
          "type": "uint256"
        },
        {
          "indexed": false,
          "internalType": "bool",
          "name": "isActive",
          "type": "bool"
        }
      ],
      "name": "AssetStatusUpdated",
      "type": "event"
    },
    {
      "anonymous": false,
      "inputs": [
        {
          "indexed": false,
          "internalType": "address",
          "name": "account",
          "type": "address"
        }
      ],
      "name": "Paused",
      "type": "event"
    },
    {
      "anonymous": false,
      "inputs": [
        {
          "indexed": true,
          "internalType": "uint256",
          "name": "assetId",
          "type": "uint256"
        },
        {
          "indexed": true,
          "internalType": "address",
          "name": "investor",
          "type": "address"
        },
        {
          "indexed": false,
          "internalType": "uint256",
          "name": "amount",
          "type": "uint256"
        }
      ],
      "name": "RevenueClaimed",
      "type": "event"
    },
    {
      "anonymous": false,
      "inputs": [
        {
          "indexed": true,
          "internalType": "uint256",
          "name": "assetId",
          "type": "uint256"
        },
        {
          "indexed": false,
          "internalType": "uint256",
          "name": "totalAmount",
          "type": "uint256"
        },
        {
          "indexed": false,
          "internalType": "uint256",
          "name": "perShareAmount",
          "type": "uint256"
        },
        {
          "indexed": false,
          "internalType": "string",
          "name": "description",
          "type": "string"
        }
      ],
      "name": "RevenueDistributed",
      "type": "event"
    },
    {
      "anonymous": false,
      "inputs": [
        {
          "indexed": true,
          "internalType": "bytes32",
          "name": "role",
          "type": "bytes32"
        },
        {
          "indexed": true,
          "internalType": "bytes32",
          "name": "previousAdminRole",
          "type": "bytes32"
        },
        {
          "indexed": true,
          "internalType": "bytes32",
          "name": "newAdminRole",
          "type": "bytes32"
        }
      ],
      "name": "RoleAdminChanged",
      "type": "event"
    },
    {
      "anonymous": false,
      "inputs": [
        {
          "indexed": true,
          "internalType": "bytes32",
          "name": "role",
          "type": "bytes32"
        },
        {
          "indexed": true,
          "internalType": "address",
          "name": "account",
          "type": "address"
        },
        {
          "indexed": true,
          "internalType": "address",
          "name": "sender",
          "type": "address"
        }
      ],
      "name": "RoleGranted",
      "type": "event"
    },
    {
      "anonymous": false,
      "inputs": [
        {
          "indexed": true,
          "internalType": "bytes32",
          "name": "role",
          "type": "bytes32"
        },
        {
          "indexed": true,
          "internalType": "address",
          "name": "account",
          "type": "address"
        },
        {
          "indexed": true,
          "internalType": "address",
          "name": "sender",
          "type": "address"
        }
      ],
      "name": "RoleRevoked",
      "type": "event"
    },
    {
      "anonymous": false,
      "inputs": [
        {
          "indexed": true,
          "internalType": "uint256",
          "name": "assetId",
          "type": "uint256"
        },
        {
          "indexed": true,
          "internalType": "address",
          "name": "buyer",
          "type": "address"
        },
        {
          "indexed": false,
          "internalType": "uint256",
          "name": "shares",
          "type": "uint256"
        },
        {
          "indexed": false,
          "internalType": "uint256",
          "name": "totalCost",
          "type": "uint256"
        }
      ],
      "name": "SharesPurchased",
      "type": "event"
    },
    {
      "anonymous": false,
      "inputs": [
        {
          "indexed": true,
          "internalType": "address",
          "name": "operator",
          "type": "address"
        },
        {
          "indexed": true,
          "internalType": "address",
          "name": "from",
          "type": "address"
        },
        {
          "indexed": true,
          "internalType": "address",
          "name": "to",
          "type": "address"
        },
        {
          "indexed": false,
          "internalType": "uint256[]",
          "name": "ids",
          "type": "uint256[]"
        },
        {
          "indexed": false,
          "internalType": "uint256[]",
          "name": "values",
          "type": "uint256[]"
        }
      ],
      "name": "TransferBatch",
      "type": "event"
    },
    {
      "anonymous": false,
      "inputs": [
        {
          "indexed": true,
          "internalType": "address",
          "name": "operator",
          "type": "address"
        },
        {
          "indexed": true,
          "internalType": "address",
          "name": "from",
          "type": "address"
        },
        {
          "indexed": true,
          "internalType": "address",
          "name": "to",
          "type": "address"
        },
        {
          "indexed": false,
          "internalType": "uint256",
          "name": "id",
          "type": "uint256"
        },
        {
          "indexed": false,
          "internalType": "uint256",
          "name": "value",
          "type": "uint256"
        }
      ],
      "name": "TransferSingle",
      "type": "event"
    },
    {
      "anonymous": false,
      "inputs": [
        {
          "indexed": false,
          "internalType": "string",
          "name": "value",
          "type": "string"
        },
        {
          "indexed": true,
          "internalType": "uint256",
          "name": "id",
          "type": "uint256"
        }
      ],
      "name": "URI",
      "type": "event"
    },
    {
      "anonymous": false,
      "inputs": [
        {
          "indexed": false,
          "internalType": "address",
          "name": "account",
          "type": "address"
        }
      ],
      "name": "Unpaused",
      "type": "event"
    },
    {
      "inputs": [],
      "name": "ADMIN_ROLE",
      "outputs": [
        {
          "internalType": "bytes32",
          "name": "",
          "type": "bytes32"
        }
      ],
      "stateMutability": "view",
      "type": "function"
    },
    {
      "inputs": [],
      "name": "DEFAULT_ADMIN_ROLE",
      "outputs": [
        {
          "internalType": "bytes32",
          "name": "",
          "type": "bytes32"
        }
      ],
      "stateMutability": "view",
      "type": "function"
    },
    {
      "inputs": [],
      "name": "DISTRIBUTOR_ROLE",
      "outputs": [
        {
          "internalType": "bytes32",
          "name": "",
          "type": "bytes32"
        }
      ],
      "stateMutability": "view",
      "type": "function"
    },
    {
      "inputs": [],
      "name": "PROPERTY_MANAGER_ROLE",
      "outputs": [
        {
          "internalType": "bytes32",
          "name": "",
          "type": "bytes32"
        }
      ],
      "stateMutability": "view",
      "type": "function"
    },
    {
      "inputs": [
        {
          "internalType": "uint256",
          "name": "",
          "type": "uint256"
        },
        {
          "internalType": "uint256",
          "name": "",
          "type": "uint256"
        }
      ],
      "name": "assetHolders",
      "outputs": [
        {
          "internalType": "address",
          "name": "",
          "type": "address"
        }
      ],
      "stateMutability": "view",
      "type": "function"
    },
    {
      "inputs": [
        {
          "internalType": "address",
          "name": "account",
          "type": "address"
        },
        {
          "internalType": "uint256",
          "name": "id",
          "type": "uint256"
        }
      ],
      "name": "balanceOf",
      "outputs": [
        {
          "internalType": "uint256",
          "name": "",
          "type": "uint256"
        }
      ],
      "stateMutability": "view",
      "type": "function"
    },
    {
      "inputs": [
        {
          "internalType": "address[]",
          "name": "accounts",
          "type": "address[]"
        },
        {
          "internalType": "uint256[]",
          "name": "ids",
          "type": "uint256[]"
        }
      ],
      "name": "balanceOfBatch",
      "outputs": [
        {
          "internalType": "uint256[]",
          "name": "",
          "type": "uint256[]"
        }
      ],
      "stateMutability": "view",
      "type": "function"
    },
    {
      "inputs": [
        {
          "internalType": "uint256[]",
          "name": "_assetIds",
          "type": "uint256[]"
        }
      ],
      "name": "claimMultipleRevenue",
      "outputs": [],
      "stateMutability": "nonpayable",
      "type": "function"
    },
    {
      "inputs": [
        {
          "internalType": "uint256",
          "name": "_assetId",
          "type": "uint256"
        }
      ],
      "name": "claimRevenue",
      "outputs": [],
      "stateMutability": "nonpayable",
      "type": "function"
    },
    {
      "inputs": [
        {
          "internalType": "uint256",
          "name": "_assetId",
          "type": "uint256"
        },
        {
          "internalType": "uint256",
          "name": "_amount",
          "type": "uint256"
        },
        {
          "internalType": "string",
          "name": "_description",
          "type": "string"
        }
      ],
      "name": "distributeRevenue",
      "outputs": [],
      "stateMutability": "nonpayable",
      "type": "function"
    },
    {
      "inputs": [],
      "name": "feeRecipient",
      "outputs": [
        {
          "internalType": "address",
          "name": "",
          "type": "address"
        }
      ],
      "stateMutability": "view",
      "type": "function"
    },
    {
      "inputs": [
        {
          "internalType": "uint256",
          "name": "",
          "type": "uint256"
        }
      ],
      "name": "fractionalAssets",
      "outputs": [
        {
          "internalType": "uint256",
          "name": "propertyTokenId",
          "type": "uint256"
        },
        {
          "internalType": "address",
          "name": "propertyRegistry",
          "type": "address"
        },
        {
          "internalType": "string",
          "name": "propertyIdentifier",
          "type": "string"
        },
        {
          "internalType": "uint256",
          "name": "totalShares",
          "type": "uint256"
        },
        {
          "internalType": "uint256",
          "name": "availableShares",
          "type": "uint256"
        },
        {
          "internalType": "uint256",
          "name": "sharePriceUSD",
          "type": "uint256"
        },
        {
          "internalType": "uint256",
          "name": "minimumInvestment",
          "type": "uint256"
        },
        {
          "internalType": "address",
          "name": "paymentToken",
          "type": "address"
        },
        {
          "internalType": "address",
          "name": "beneficiary",
          "type": "address"
        },
        {
          "internalType": "bool",
          "name": "isActive",
          "type": "bool"
        },
        {
          "internalType": "bool",
          "name": "revenueGenerating",
          "type": "bool"
        },
        {
          "internalType": "uint256",
          "name": "totalRevenue",
          "type": "uint256"
        },
        {
          "internalType": "uint256",
          "name": "createdAt",
          "type": "uint256"
        },
        {
          "internalType": "string",
          "name": "metadataURI",
          "type": "string"
        }
      ],
      "stateMutability": "view",
      "type": "function"
    },
    {
      "inputs": [
        {
          "internalType": "uint256",
          "name": "_propertyTokenId",
          "type": "uint256"
        },
        {
          "internalType": "address",
          "name": "_propertyRegistry",
          "type": "address"
        },
        {
          "internalType": "string",
          "name": "_propertyIdentifier",
          "type": "string"
        },
        {
          "internalType": "uint256",
          "name": "_totalShares",
          "type": "uint256"
        },
        {
          "internalType": "uint256",
          "name": "_sharePriceUSD",
          "type": "uint256"
        },
        {
          "internalType": "uint256",
          "name": "_minimumInvestment",
          "type": "uint256"
        },
        {
          "internalType": "address",
          "name": "_paymentToken",
          "type": "address"
        },
        {
          "internalType": "address",
          "name": "_beneficiary",
          "type": "address"
        },
        {
          "internalType": "bool",
          "name": "_revenueGenerating",
          "type": "bool"
        },
        {
          "internalType": "string",
          "name": "_metadataURI",
          "type": "string"
        }
      ],
      "name": "fractionalizeProperty",
      "outputs": [
        {
          "internalType": "uint256",
          "name": "",
          "type": "uint256"
        }
      ],
      "stateMutability": "nonpayable",
      "type": "function"
    },
    {
      "inputs": [
        {
          "internalType": "uint256",
          "name": "_assetId",
          "type": "uint256"
        }
      ],
      "name": "getAssetHolders",
      "outputs": [
        {
          "internalType": "address[]",
          "name": "",
          "type": "address[]"
        }
      ],
      "stateMutability": "view",
      "type": "function"
    },
    {
      "inputs": [
        {
          "internalType": "address",
          "name": "_investor",
          "type": "address"
        },
        {
          "internalType": "uint256",
          "name": "_assetId",
          "type": "uint256"
        }
      ],
      "name": "getClaimableRevenue",
      "outputs": [
        {
          "internalType": "uint256",
          "name": "",
          "type": "uint256"
        }
      ],
      "stateMutability": "view",
      "type": "function"
    },
    {
      "inputs": [
        {
          "internalType": "address",
          "name": "_investor",
          "type": "address"
        }
      ],
      "name": "getInvestorAssets",
      "outputs": [
        {
          "internalType": "uint256[]",
          "name": "",
          "type": "uint256[]"
        }
      ],
      "stateMutability": "view",
      "type": "function"
    },
    {
      "inputs": [
        {
          "internalType": "uint256",
          "name": "_assetId",
          "type": "uint256"
        }
      ],
      "name": "getRevenueHistory",
      "outputs": [
        {
          "components": [
            {
              "internalType": "uint256",
              "name": "assetId",
              "type": "uint256"
            },
            {
              "internalType": "uint256",
              "name": "totalAmount",
              "type": "uint256"
            },
            {
              "internalType": "uint256",
              "name": "perShareAmount",
              "type": "uint256"
            },
            {
              "internalType": "uint256",
              "name": "distributionDate",
              "type": "uint256"
            },
            {
              "internalType": "address",
              "name": "distributedBy",
              "type": "address"
            },
            {
              "internalType": "string",
              "name": "description",
              "type": "string"
            }
          ],
          "internalType": "struct FractionalProperty.RevenueDistribution[]",
          "name": "",
          "type": "tuple[]"
        }
      ],
      "stateMutability": "view",
      "type": "function"
    },
    {
      "inputs": [
        {
          "internalType": "bytes32",
          "name": "role",
          "type": "bytes32"
        }
      ],
      "name": "getRoleAdmin",
      "outputs": [
        {
          "internalType": "bytes32",
          "name": "",
          "type": "bytes32"
        }
      ],
      "stateMutability": "view",
      "type": "function"
    },
    {
      "inputs": [
        {
          "internalType": "bytes32",
          "name": "role",
          "type": "bytes32"
        },
        {
          "internalType": "address",
          "name": "account",
          "type": "address"
        }
      ],
      "name": "grantRole",
      "outputs": [],
      "stateMutability": "nonpayable",
      "type": "function"
    },
    {
      "inputs": [
        {
          "internalType": "bytes32",
          "name": "role",
          "type": "bytes32"
        },
        {
          "internalType": "address",
          "name": "account",
          "type": "address"
        }
      ],
      "name": "hasRole",
      "outputs": [
        {
          "internalType": "bool",
          "name": "",
          "type": "bool"
        }
      ],
      "stateMutability": "view",
      "type": "function"
    },
    {
      "inputs": [
        {
          "internalType": "address",
          "name": "",
          "type": "address"
        }
      ],
      "name": "investors",
      "outputs": [
        {
          "internalType": "uint256",
          "name": "totalInvested",
          "type": "uint256"
        },
        {
          "internalType": "uint256",
          "name": "totalRevenueReceived",
          "type": "uint256"
        }
      ],
      "stateMutability": "view",
      "type": "function"
    },
    {
      "inputs": [
        {
          "internalType": "address",
          "name": "account",
          "type": "address"
        },
        {
          "internalType": "address",
          "name": "operator",
          "type": "address"
        }
      ],
      "name": "isApprovedForAll",
      "outputs": [
        {
          "internalType": "bool",
          "name": "",
          "type": "bool"
        }
      ],
      "stateMutability": "view",
      "type": "function"
    },
    {
      "inputs": [
        {
          "internalType": "uint256",
          "name": "",
          "type": "uint256"
        },
        {
          "internalType": "address",
          "name": "",
          "type": "address"
        }
      ],
      "name": "isHolder",
      "outputs": [
        {
          "internalType": "bool",
          "name": "",
          "type": "bool"
        }
      ],
      "stateMutability": "view",
      "type": "function"
    },
    {
      "inputs": [],
      "name": "pause",
      "outputs": [],
      "stateMutability": "nonpayable",
      "type": "function"
    },
    {
      "inputs": [],
      "name": "paused",
      "outputs": [
        {
          "internalType": "bool",
          "name": "",
          "type": "bool"
        }
      ],
      "stateMutability": "view",
      "type": "function"
    },
    {
      "inputs": [],
      "name": "platformFeePercent",
      "outputs": [
        {
          "internalType": "uint256",
          "name": "",
          "type": "uint256"
        }
      ],
      "stateMutability": "view",
      "type": "function"
    },
    {
      "inputs": [
        {
          "internalType": "uint256",
          "name": "_assetId",
          "type": "uint256"
        },
        {
          "internalType": "uint256",
          "name": "_shares",
          "type": "uint256"
        }
      ],
      "name": "purchaseShares",
      "outputs": [],
      "stateMutability": "nonpayable",
      "type": "function"
    },
    {
      "inputs": [
        {
          "internalType": "bytes32",
          "name": "role",
          "type": "bytes32"
        },
        {
          "internalType": "address",
          "name": "callerConfirmation",
          "type": "address"
        }
      ],
      "name": "renounceRole",
      "outputs": [],
      "stateMutability": "nonpayable",
      "type": "function"
    },
    {
      "inputs": [
        {
          "internalType": "uint256",
          "name": "",
          "type": "uint256"
        },
        {
          "internalType": "uint256",
          "name": "",
          "type": "uint256"
        }
      ],
      "name": "revenueHistory",
      "outputs": [
        {
          "internalType": "uint256",
          "name": "assetId",
          "type": "uint256"
        },
        {
          "internalType": "uint256",
          "name": "totalAmount",
          "type": "uint256"
        },
        {
          "internalType": "uint256",
          "name": "perShareAmount",
          "type": "uint256"
        },
        {
          "internalType": "uint256",
          "name": "distributionDate",
          "type": "uint256"
        },
        {
          "internalType": "address",
          "name": "distributedBy",
          "type": "address"
        },
        {
          "internalType": "string",
          "name": "description",
          "type": "string"
        }
      ],
      "stateMutability": "view",
      "type": "function"
    },
    {
      "inputs": [
        {
          "internalType": "bytes32",
          "name": "role",
          "type": "bytes32"
        },
        {
          "internalType": "address",
          "name": "account",
          "type": "address"
        }
      ],
      "name": "revokeRole",
      "outputs": [],
      "stateMutability": "nonpayable",
      "type": "function"
    },
    {
      "inputs": [
        {
          "internalType": "address",
          "name": "from",
          "type": "address"
        },
        {
          "internalType": "address",
          "name": "to",
          "type": "address"
        },
        {
          "internalType": "uint256[]",
          "name": "ids",
          "type": "uint256[]"
        },
        {
          "internalType": "uint256[]",
          "name": "values",
          "type": "uint256[]"
        },
        {
          "internalType": "bytes",
          "name": "data",
          "type": "bytes"
        }
      ],
      "name": "safeBatchTransferFrom",
      "outputs": [],
      "stateMutability": "nonpayable",
      "type": "function"
    },
    {
      "inputs": [
        {
          "internalType": "address",
          "name": "from",
          "type": "address"
        },
        {
          "internalType": "address",
          "name": "to",
          "type": "address"
        },
        {
          "internalType": "uint256",
          "name": "id",
          "type": "uint256"
        },
        {
          "internalType": "uint256",
          "name": "value",
          "type": "uint256"
        },
        {
          "internalType": "bytes",
          "name": "data",
          "type": "bytes"
        }
      ],
      "name": "safeTransferFrom",
      "outputs": [],
      "stateMutability": "nonpayable",
      "type": "function"
    },
    {
      "inputs": [
        {
          "internalType": "address",
          "name": "operator",
          "type": "address"
        },
        {
          "internalType": "bool",
          "name": "approved",
          "type": "bool"
        }
      ],
      "name": "setApprovalForAll",
      "outputs": [],
      "stateMutability": "nonpayable",
      "type": "function"
    },
    {
      "inputs": [
        {
          "internalType": "uint256",
          "name": "",
          "type": "uint256"
        },
        {
          "internalType": "address",
          "name": "",
          "type": "address"
        }
      ],
      "name": "shareholdings",
      "outputs": [
        {
          "internalType": "uint256",
          "name": "",
          "type": "uint256"
        }
      ],
      "stateMutability": "view",
      "type": "function"
    },
    {
      "inputs": [
        {
          "internalType": "bytes4",
          "name": "interfaceId",
          "type": "bytes4"
        }
      ],
      "name": "supportsInterface",
      "outputs": [
        {
          "internalType": "bool",
          "name": "",
          "type": "bool"
        }
      ],
      "stateMutability": "view",
      "type": "function"
    },
    {
      "inputs": [
        {
          "internalType": "uint256",
          "name": "",
          "type": "uint256"
        }
      ],
      "name": "totalSharesSold",
      "outputs": [
        {
          "internalType": "uint256",
          "name": "",
          "type": "uint256"
        }
      ],
      "stateMutability": "view",
      "type": "function"
    },
    {
      "inputs": [
        {
          "internalType": "uint256",
          "name": "",
          "type": "uint256"
        },
        {
          "internalType": "address",
          "name": "",
          "type": "address"
        }
      ],
      "name": "unclaimedRevenue",
      "outputs": [
        {
          "internalType": "uint256",
          "name": "",
          "type": "uint256"
        }
      ],
      "stateMutability": "view",
      "type": "function"
    },
    {
      "inputs": [],
      "name": "unpause",
      "outputs": [],
      "stateMutability": "nonpayable",
      "type": "function"
    },
    {
      "inputs": [
        {
          "internalType": "uint256",
          "name": "_assetId",
          "type": "uint256"
        },
        {
          "internalType": "bool",
          "name": "_isActive",
          "type": "bool"
        }
      ],
      "name": "updateAssetStatus",
      "outputs": [],
      "stateMutability": "nonpayable",
      "type": "function"
    },
    {
      "inputs": [
        {
          "internalType": "address",
          "name": "_newRecipient",
          "type": "address"
        }
      ],
      "name": "updateFeeRecipient",
      "outputs": [],
      "stateMutability": "nonpayable",
      "type": "function"
    },
    {
      "inputs": [
        {
          "internalType": "uint256",
          "name": "_feePercent",
          "type": "uint256"
        }
      ],
      "name": "updatePlatformFee",
      "outputs": [],
      "stateMutability": "nonpayable",
      "type": "function"
    },
    {
      "inputs": [
        {
          "internalType": "uint256",
          "name": "",
          "type": "uint256"
        }
      ],
      "name": "uri",
      "outputs": [
        {
          "internalType": "string",
          "name": "",
          "type": "string"
        }
      ],
      "stateMutability": "view",
      "type": "function"
    }
  ],
  "bytecode": "0x608060405234620002665762003c10803803806200001d816200026b565b928339810190604081830312620002665780516001600160a01b0381169190829003620002665760208181015190916001600160401b03919082821162000266570191601f90858285011215620002665783518381116200023b57601f19946200008d828501871684016200026b565b978289528383830101116200026657829060005b838110620002515750506000918801015285519283116200023b57600254936001948581811c9116801562000230575b838210146200021a57838111620001ce575b5081928411600114620001645750508192939460009262000158575b5050600019600383901b1c191690821b176002555b60045560fa600f55620001273362000291565b50620001333362000312565b50601080546001600160a01b03191691909117905560405161383a9081620003b68239f35b015190503880620000ff565b839291921695600260005282600020926000905b888210620001b657505083859697106200019c575b505050811b0160025562000114565b015160001960f88460031b161c191690553880806200018d565b80878596829496860151815501950193019062000178565b6002600052826000208480870160051c82019285881062000210575b0160051c019086905b82811062000203575050620000e3565b60008155018690620001f3565b92508192620001ea565b634e487b7160e01b600052602260045260246000fd5b90607f1690620000d1565b634e487b7160e01b600052604160045260246000fd5b8181018301518a8201840152849201620000a1565b600080fd5b6040519190601f01601f191682016001600160401b038111838210176200023b57604052565b6001600160a01b031660008181527f3617319a054d772f909f7c479a2cebe5066e836a939412e32403c99029b92eff602052604081205490919060ff166200030e5781805260036020526040822081835260205260408220600160ff19825416179055339160008051602062003bf08339815191528180a4600190565b5090565b6001600160a01b031660008181527f4fe279ab14a7d0755e455be34761d47dd288652c2cace6a1aa3c1d8775ae3c7d60205260408120549091907fdf8b4c520ffe197c5343c6f5aec59570151ef9a492f2c624fd45ddde6135ec429060ff16620003b05780835260036020526040832082845260205260408320600160ff1982541617905560008051602062003bf0833981519152339380a4600190565b50509056fe6080604052600436101561001257600080fd5b60003560e01c8062fdd58e146102b657806301ffc9a7146102b15780630e89341c146102ac57806318e3454d146102a75780631a2a3d7c146102a25780631cb536ed1461029d578063248a9ca3146102985780632eb2c2d6146102935780632f2ff15d1461028e57806336568abe1461028957806336f732a1146102845780633f4ba83a1461027f578063469048401461027a57806347e64656146102755780634d93eab5146102705780634e1273f41461026b578063583fad6214610266578063587b8ed0146102615780635c975abb1461025c5780636f7bc9be14610257578063732dea9f1461025257806375b238fc1461024d5780638456cb59146102485780638c639a851461024357806391d148541461023e578063a217fddf14610239578063a22cb46514610234578063aa0b59881461022f578063ac22be841461022a578063b0caa41f14610225578063b3c18e8f14610220578063bb7056a51461021b578063cb0e334b14610216578063d2bcdc6014610211578063d34a45701461020c578063d547741f14610207578063e985e9c514610202578063e9e7854c146101fd578063f0bd87cc146101f8578063f160d369146101f3578063f242432a146101ee5763fb112ea3146101e957600080fd5b61205b565b611f3e565b611eba565b611e7f565b611e04565b611db3565b611d74565b611cfc565b61193c565b61187c565b6117ac565b611714565b611696565b611652565b6115f4565b611544565b611510565b6114ca565b6114ac565b611452565b611417565b61136c565b6111a7565b611184565b610efa565b610d93565b610cda565b610c13565b610b94565b610b6b565b610b01565b610aaf565b610a68565b610a29565b610903565b610777565b610602565b6105b0565b610539565b610453565b61038b565b61032c565b600435906001600160a01b03821682036102d157565b600080fd5b602435906001600160a01b03821682036102d157565b60c435906001600160a01b03821682036102d157565b60e435906001600160a01b03821682036102d157565b35906001600160a01b03821682036102d157565b346102d15760403660031901126102d157602061037061034a6102bb565b6024356000526000835260406000209060018060a01b0316600052602052604060002090565b54604051908152f35b6001600160e01b03198116036102d157565b346102d15760203660031901126102d15760206004356103aa81610379565b63ffffffff60e01b16637965db0b60e01b81149081156103d0575b506040519015158152f35b636cdb3d1360e11b811491508115610402575b81156103f1575b50386103c5565b6301ffc9a760e01b149050386103ea565b6303a24d0760e21b811491506103e3565b919082519283825260005b84811061043f575050826000602080949584010152601f8019910116010190565b60208183018101518483018201520161041e565b346102d1576020806003193601126102d1576040519060008260025491610479836111fa565b928383526001908582821691826000146105195750506001146104bc575b506104a4925003836107dc565b6104b8604051928284938452830190610413565b0390f35b84915060026000527f405787fa12a823e0f2b7631cc41b3ba8828b3321ca811111fa75cd3aa3bb5ace906000915b8583106105015750506104a4935082010138610497565b805483890185015287945086939092019181016104ea565b60ff1916858201526104a495151560051b85010192503891506104979050565b346102d15760403660031901126102d15760206103706105576102bb565b602435600052600c835260406000209060018060a01b0316600052602052604060002090565b634e487b7160e01b600052603260045260246000fd5b80548210156105ab5760005260206000200190600090565b61057d565b346102d15760403660031901126102d157602435600435600052600d602052604060002080548210156102d1576020916105e991610593565b905460405160039290921b1c6001600160a01b03168152f35b346102d15760203660031901126102d15760043561061e613162565b61064861063582600052600c602052604060002090565b3360009081526020919091526040902090565b54906106558215156133fb565b6106c86106bc6106bc60e061067c610677866000526007602052604060002090565b61343d565b60006106ad3361069689600052600c602052604060002090565b9060018060a01b0316600052602052604060002090565b5501516001600160a01b031690565b6001600160a01b031690565b60405163a9059cbb60e01b81523360048201526024810184905290602090829060449082906000905af180156107725761070a91600091610744575b5061320e565b60405191825233917fb9e8470097faa00e83252475f2ee4b69007b0bb2405268ebec248676998a21b390602090a36107426001600455565b005b610765915060203d811161076b575b61075d81836107dc565b810190612f29565b38610704565b503d610753565b61263d565b346102d15760203660031901126102d15760043560005260036020526020600160406000200154604051908152f35b634e487b7160e01b600052604160045260246000fd5b60c081019081106001600160401b038211176107d757604052565b6107a6565b90601f801991011681019081106001600160401b038211176107d757604052565b6040519061080a826107bc565b565b604051906101c082018281106001600160401b038211176107d757604052565b6001600160401b0381116107d75760051b60200190565b81601f820112156102d15780359161085a8361082c565b9261086860405194856107dc565b808452602092838086019260051b8201019283116102d1578301905b828210610892575050505090565b81358152908301908301610884565b6001600160401b0381116107d757601f01601f191660200190565b81601f820112156102d1578035906108d3826108a1565b926108e160405194856107dc565b828452602083830101116102d157816000926020809301838601378301015290565b346102d15760a03660031901126102d15761091c6102bb565b6109246102d6565b90604435916001600160401b03908184116102d15761094860049436908601610843565b906064358381116102d1576109609036908701610843565b926084359081116102d15761097890369087016108bc565b936001600160a01b03808216903382141580610a05575b6109d8578316156109c057156109a957610742955061241b565b604051626a0d4560e21b8152600081880152602490fd5b604051632bfa23e760e11b8152600081890152602490fd5b6040805163711bec9160e11b815233818b019081526001600160a01b038616602082015290918291010390fd5b50600082815260016020908152604080832033845290915290205460ff161561098f565b346102d15760403660031901126102d157610742600435610a486102d6565b90806000526003602052610a636001604060002001546121cb565b6121ec565b346102d15760403660031901126102d157610a816102d6565b336001600160a01b03821603610a9d5761074290600435612286565b60405163334bd91960e11b8152600490fd5b346102d15760403660031901126102d157602060ff610af5610acf6102d6565b600435600052600e845260406000209060018060a01b0316600052602052604060002090565b54166040519015158152f35b346102d15760003660031901126102d157610b1a61209f565b60055460ff811615610b595760ff19166005557f5db9ee0a495bf2e6ff9c91a7834c1ba4fdd244a5e8aa4e537bd38aeae4b073aa6020604051338152a1005b604051638dfc202b60e01b8152600490fd5b346102d15760003660031901126102d1576010546040516001600160a01b039091168152602090f35b346102d15760003660031901126102d15760206040517f5cefc88e2d50f91b66109b6bb76803f11168ca3d1cee10cbafe864e4749970c78152f35b6020908160408183019282815285518094520193019160005b828110610bf6575050505090565b83516001600160a01b031685529381019392810192600101610be8565b346102d1576020806003193601126102d157600435600052600d8152604060002090604051908181845491828152019360005281600020916000905b828210610c72576104b885610c66818903826107dc565b60405191829182610bcf565b83546001600160a01b031686529485019460019384019390910190610c4f565b90815180825260208080930193019160005b828110610cb2575050505090565b835185529381019392810192600101610ca4565b906020610cd7928181520190610c92565b90565b346102d15760403660031901126102d1576004356001600160401b038082116102d157366023830112156102d1578160040135610d168161082c565b92610d2460405194856107dc565b81845260209160248386019160051b830101913683116102d157602401905b828210610d7c57856024358681116102d1576104b891610d6a610d70923690600401610843565b90612356565b60405191829182610cc6565b838091610d8884610318565b815201910190610d43565b346102d1576020806003193601126102d15760048035906001600160401b038083116102d157366023840112156102d157828201359081116102d1576024830192602436918360051b0101116102d157610deb613162565b60005b818110610dff576107426001600455565b610e0a81838661350c565b3590610e243361069684600052600c602052604060002090565b5480610e3b575b50610e36915061232e565b610dee565b82610e616106bc6106bc60e061067c610677610e92996000526007602052604060002090565b6040805163a9059cbb60e01b815233818a0190815260208101869052909691928b9288928391600091839190880190565b03925af190811561077257610ed37fb9e8470097faa00e83252475f2ee4b69007b0bb2405268ebec248676998a21b392610e3697600091610ee3575061320e565b519283523392602090a338610e2b565b61076591508c8d3d1061076b5761075d81836107dc565b346102d15760603660031901126102d1576004356024356044356001600160401b0381116102d157610f309036906004016108bc565b90610f3961211b565b610f41613162565b610f55836000526007602052604060002090565b91610f70610f6b600885015460ff9060a81c1690565b613185565b610f8f610f87856000526009602052604060002090565b5415156131d1565b6007830154610fa8906106bc906001600160a01b031681565b6040516323b872dd60e01b81523360048201523060248201526044810184905290602090829060649082906000905af1801561077257610fef91600091610744575061320e565b61100d611006856000526009602052604060002090565b5483612efc565b9161105661102586600052600a602052604060002090565b61102d6107fd565b8781526020810184905260408101869052426060820152336080820152908460a083015261324c565b61107261106d86600052600d602052604060002090565b613387565b9160005b835181101561113257808761109e6110916110c79488612342565b516001600160a01b031690565b876110b782610696856000526008602052604060002090565b54806110cc575b5050505061232e565b611076565b826110f7611127946106966110e660019661111e96612ee9565b97600052600c602052604060002090565b611102868254612fcc565b90556001600160a01b03166000908152600b6020526040902090565b01918254612fcc565b9055873887816110be565b5061117791925060097f37db5abe7e44cd36d7a437bc06e196d087c114084d907bf3cd0170a56e73e41f9501611169848254612fcc565b9055604051938493846133df565b0390a26107426001600455565b346102d15760003660031901126102d157602060ff600554166040519015158152f35b346102d15760203660031901126102d1576001600160a01b036111c86102bb565b16600052600b602052604060002060018154910154906104b86040519283928360209093929193604081019481520152565b90600182811c9216801561122a575b602083101461121457565b634e487b7160e01b600052602260045260246000fd5b91607f1691611209565b9060405191826000825492611248846111fa565b9081845260019485811690816000146112b55750600114611272575b505061080a925003836107dc565b9093915060005260209081600020936000915b81831061129d57505061080a93508201013880611264565b85548884018501529485019487945091830191611285565b91505061080a94506020925060ff191682840152151560051b8201013880611264565b9b999795939c9a9896949291908c52600160a01b600190031660208c01526101c08060408d01528b0161130a91610413565b60608b019b909b5260808a015260a089015260c08801526001600160a01b031660e08701526001600160a01b031661010086015215156101208501521515610140840152610160830152610180820152808203906101a00152610cd791610413565b346102d15760203660031901126102d157600435600052600760205260406000208054906104b860018060a01b0380600184015416926113ae60028201611234565b9460038201549260048301549160058401549060068501546113d9600787015460018060a01b031690565b906008870154936009880154966113f7600b600a8b01549a01611234565b996040519d8e9d8e9760ff8a60a81c169a60ff8b60a01c169a16986112d8565b346102d15760003660031901126102d15760206040517fdf8b4c520ffe197c5343c6f5aec59570151ef9a492f2c624fd45ddde6135ec428152f35b346102d15760003660031901126102d15761146b61209f565b611473612df4565b600160ff1960055416176005557f62e78cea01bee320cd4e420270b5ea74000d11b0c9f74754ebdbfc544b05a2586020604051338152a1005b346102d15760003660031901126102d1576020600f54604051908152f35b346102d15760403660031901126102d157602060ff610af56114ea6102d6565b6004356000526003845260406000209060018060a01b0316600052602052604060002090565b346102d15760003660031901126102d157602060405160008152f35b801515036102d157565b610104359061080a8261152c565b346102d15760403660031901126102d15761155d6102bb565b6024356115698161152c565b6001600160a01b0382169182156115dc573360009081526001602090815260408083206001600160a01b039094168352929052209015159060ff1981541660ff83161790556040519081527f17307eab39ab6107e8899845ad3d59bd9653f200f220920489ca2b5937696c3160203392a3005b60405162ced3e160e81b815260006004820152602490fd5b346102d15760203660031901126102d15760043561161061209f565b6101f4811161161e57600f55005b60405162461bcd60e51b815260206004820152600c60248201526b08ccaca40e8dede40d0d2ced60a31b6044820152606490fd5b346102d15760403660031901126102d15760206103706116706102d6565b6004356000526008835260406000209060018060a01b0316600052602052604060002090565b346102d15760403660031901126102d1576004357f2bf0a950612a3aaef4f17916b9feea2865c6a6a63961f77bfa1e13b0832c31bb60206024356116d98161152c565b6116e1612173565b60008481526007835260409020600801805460ff60a01b191682151560a01b60ff60a01b161790556040519015158152a2005b346102d1576101403660031901126102d15761172e6102d6565b6001600160401b036044358181116102d15761174e9036906004016108bc565b6117566102ec565b61175e610302565b611766611536565b91610124359485116102d1576104b89561178761179c9636906004016108bc565b9460a435916084359160643591600435612919565b6040519081529081906020820190565b346102d15760203660031901126102d15760043560005260096020526020604060002054604051908152f35b602080820190808352835180925260409283810182858560051b8401019601946000925b85841061180d575050505050505090565b90919293949596858061186b600193603f198682030188528b518051825283810151848301528781015188830152606080820151908301526080868060a01b0381830151169083015260a0809101519160c080928201520190610413565b9901940194019295949391906117fc565b346102d1576020806003193601126102d15760048035600052600a8252604091826000208054916118ac8361082c565b936118b9865195866107dc565b8385526000928352818320908286015b8585106118dd578751806104b889826117d8565b6006846001928a516118ee816107bc565b86548152848701548382015260028701548c82015260038701546060820152848060a01b038688015416608082015261192960058801611234565b60a08201528152019301940193916118c9565b346102d15760403660031901126102d15760243560043561195b613162565b611963612df4565b611977816000526007602052604060002090565b91600883019061199461198f835460ff9060a01c1690565b612e12565b6119a46006850154821015612e51565b60048401906119b68254821115612e9d565b6119d06119c7600587015483612ee9565b620f4240900490565b6119e76119df600f5483612ee9565b612710900490565b90611a0c6106bc6106bc60076119fd8686612f1c565b9a01546001600160a01b031690565b6010546040516323b872dd60e01b8082523360048301526001600160a01b03909216602482015260448101949094526000986020949285846064818e855af192831561077257611a688794611aa5968e91611c8d575b50612f3e565b89548c906001600160a01b03166040519283523360048401526001600160a01b031660248301526044820193909352938492839182906064820190565b03925af191821561077257611ae97fce81571c08c76465bdf390ad1abe80af8c51c6c4566e3485f9395f13d5ad632893611bb2938a968c92611c70575b5050612f80565b611b0133610696866000526008602052604060002090565b611b0c868254612fcc565b9055611b22846000526009602052604060002090565b611b2d868254612fcc565b9055611b3a858754612f1c565b8655611b65611b61611b5a3361069688600052600e602052604060002090565b5460ff1690565b1590565b611c09575b336000908152600b60205260409020611b84828254612fcc565b9055611b99611b91612649565b868633613049565b6040805195865260208601919091523394918291820190565b0390a35415611bca575b82611bc76001600455565b80f35b805460ff60a01b19169055604051600081527f2bf0a950612a3aaef4f17916b9feea2865c6a6a63961f77bfa1e13b0832c31bb90602090a23880611bbc565b611c2633611c2186600052600d602052604060002090565b612fd9565b611c4e611c413361069687600052600e602052604060002090565b805460ff19166001179055565b336000908152600b60205260409020611c6b908590600201613014565b611b6a565b611c869250803d1061076b5761075d81836107dc565b3880611ae2565b611ca49150863d881161076b5761075d81836107dc565b38611a62565b80548210156105ab576000526006602060002091020190600090565b92610cd796959260c09592855260208501526040840152606083015260018060a01b031660808201528160a08201520190610413565b346102d15760403660031901126102d157602435600435600052600a60205260406000209081548110156102d157611d3391611caa565b508054600182015460028301546003840154600485015492946104b8936001600160a01b03169190611d6790600501611234565b9260405196879687611cc6565b346102d15760403660031901126102d157610742600435611d936102d6565b90806000526003602052611dae6001604060002001546121cb565b612286565b346102d15760403660031901126102d157602060ff610af5611dd36102bb565b611ddb6102d6565b6001600160a01b0391821660009081526001865260408082209290931681526020919091522090565b346102d1576020806003193601126102d1576001600160a01b03611e266102bb565b16600052600b8152600260406000200190604051908181845491828152019360005281600020916000905b828210611e68576104b885610d70818903826107dc565b835486529485019460019384019390910190611e51565b346102d15760003660031901126102d15760206040517f85faced7bde13e1a7dad704b895f006e704f207617d68166b31ba2d79624862d8152f35b346102d15760203660031901126102d157611ed36102bb565b611edb61209f565b6001600160a01b03168015611f07576bffffffffffffffffffffffff60a01b6010541617601055600080f35b60405162461bcd60e51b815260206004820152600f60248201526e496e76616c6964206164647265737360881b6044820152606490fd5b346102d15760a03660031901126102d157611f576102bb565b611f5f6102d6565b6084356001600160401b0381116102d157611f7e9036906004016108bc565b906001600160a01b03838116903382141580612037575b61201057821615611ff75715611fdf5761074292611fd76064356044359160405192600184526020840152604083019160018352606084015260808301604052565b92909161241b565b604051626a0d4560e21b815260006004820152602490fd5b604051632bfa23e760e11b815260006004820152602490fd5b60405163711bec9160e11b81523360048201526001600160a01b0386166024820152604490fd5b50600082815260016020908152604080832033845290915290205460ff1615611f95565b346102d15760403660031901126102d15760206103706120796102d6565b600435600052600c835260406000209060018060a01b0316600052602052604060002090565b3360009081527f4fe279ab14a7d0755e455be34761d47dd288652c2cace6a1aa3c1d8775ae3c7d602052604090207fdf8b4c520ffe197c5343c6f5aec59570151ef9a492f2c624fd45ddde6135ec429060ff905b5416156120fd5750565b6044906040519063e2517d3f60e01b82523360048301526024820152fd5b3360009081527f346ab654db25e4907fe4fa04ae22e7657e5585c768a69839813ca100cb9ef232602052604090207f85faced7bde13e1a7dad704b895f006e704f207617d68166b31ba2d79624862d9060ff906120f3565b3360009081527f6072cb4158ea4bc7b048d04714c9bed2214e2eab39db476d5719858f30aed42e602052604090207f5cefc88e2d50f91b66109b6bb76803f11168ca3d1cee10cbafe864e4749970c79060ff906120f3565b6000818152600360209081526040808320338452909152902060ff906120f3565b600090808252600360205260ff61221884604085209060018060a01b0316600052602052604060002090565b5416612280578082526003602090815260408084206001600160a01b038616600090815292529020805460ff1916600117905533926001600160a01b0316917f2f8788117e7eff1d82e926ec794901d17c78024a50270940304540a733656f0d9080a4600190565b50905090565b600090808252600360205260ff6122b284604085209060018060a01b0316600052602052604060002090565b541615612280578082526003602090815260408084206001600160a01b038616600090815292529020805460ff1916905533926001600160a01b0316917ff6391f5c32d9c69d2a47ea670b442974b53935d1edc7fd64eb21e047a839171b9080a4600190565b634e487b7160e01b600052601160045260246000fd5b600019811461233d5760010190565b612318565b80518210156105ab5760209160051b010190565b919091805183518082036123f95750508051906123728261082c565b9161238060405193846107dc565b80835261238f601f199161082c565b0190602091368385013760005b81518110156123f157600581901b8281018401519087018401516000908152602081815260408083206001600160a01b03909416835292905220546123ec91906123e68287612342565b5261232e565b61239c565b509193505050565b604051635b05999160e01b815260048101919091526024810191909152604490fd5b919094612426612df4565b61243284838886613658565b60005b825181101561257157808761244d6124789386612342565b516124588389612342565b516001600160a01b03888116612505575b831661247d575b50505061232e565b612435565b6124a061249884610696856000526008602052604060002090565b918254612fcc565b90556124c0611b61611b5a8461069685600052600e602052604060002090565b6124cb575b80612470565b81610696826124ee6124fe95611c21611c4196600052600d602052604060002090565b600052600e602052604060002090565b87386124c5565b61251d89610696856000526008602052604060002090565b612528838254612f1c565b905561254289610696856000526008602052604060002090565b546124695761256c6125628a61069686600052600e602052604060002090565b805460ff19169055565b612469565b5094909392906001600160a01b03811661258d575b5050505050565b84516001036125b3576020806125a99601519201519233612796565b3880808080612586565b6125bf949192336128e2565b6125a9565b908160209103126102d15751610cd781610379565b909260a092610cd79594600180861b0316835260006020840152604083015260608201528160808201520190610413565b9192610cd795949160a094600180871b038092168552166020840152604083015260608201528160808201520190610413565b6040513d6000823e3d90fd5b60405190602082018281106001600160401b038211176107d75760405260008252565b3d15612697573d9061267d826108a1565b9161268b60405193846107dc565b82523d6000602084013e565b606090565b9293919093843b6126ae575050505050565b6020916126d1604051948593849363f23a6e6160e01b98898652600486016125d9565b038160006001600160a01b0388165af160009181612766575b5061272957826126f861266c565b805191908261272257604051632bfa23e760e11b81526001600160a01b0383166004820152602490fd5b6020915001fd5b6001600160e01b0319160361274357503880808080612586565b604051632bfa23e760e11b81526001600160a01b03919091166004820152602490fd5b61278891925060203d811161278f575b61278081836107dc565b8101906125c4565b90386126ea565b503d612776565b939290949194853b6127ab575b505050505050565b6127ce602093604051958694859463f23a6e6160e01b998a87526004870161260a565b038160006001600160a01b0388165af160009181612810575b506127f557826126f861266c565b6001600160e01b0319160361274357503880808080806127a3565b61282991925060203d811161278f5761278081836107dc565b90386127e7565b9261285f610cd7959361286d9360018060a01b031686526000602087015260a0604087015260a0860190610c92565b908482036060860152610c92565b916080818403910152610413565b9390610cd7959361285f9161286d9460018060a01b03809216885216602087015260a0604087015260a0860190610c92565b9293919093843b6128bf575050505050565b6020916126d1604051948593849363bc197c8160e01b9889865260048601612830565b939290949194853b6128f657505050505050565b6127ce602093604051958694859463bc197c8160e01b998a87526004870161287b565b949892959791979690939661292c612173565b612934612df4565b61293f871515612a80565b61294a881515612ac2565b89151580612a76575b61295c90612b04565b6001600160a01b036129718282161515612b50565b8216151561297e90612b94565b60065461298a9061232e565b600655600654998a9961299b61080c565b8881526001600160a01b0390971660208801526040870152606086018890526080860188905260a0860189905260c08601526001600160a01b031660e08501526001600160a01b031661010084015260016101208401521515610140830152610160820160009052426101808301526101a0820152612a24856000526007602052604060002090565b90612a2e91612cf8565b604051928392612a4f92846040919493926060820195825260208201520152565b037f31c6e873749a29b18e154501953cf596f8a7d850f5b94e794f2ac0fa7e676fc091a290565b50868a1115612953565b15612a8757565b60405162461bcd60e51b8152602060048201526013602482015272125b9d985b1a59081cda185c994818dbdd5b9d606a1b6044820152606490fd5b15612ac957565b60405162461bcd60e51b8152602060048201526013602482015272496e76616c696420736861726520707269636560681b6044820152606490fd5b15612b0b57565b60405162461bcd60e51b815260206004820152601a60248201527f496e76616c6964206d696e696d756d20696e766573746d656e740000000000006044820152606490fd5b15612b5757565b60405162461bcd60e51b815260206004820152601560248201527424b73b30b634b2103830bcb6b2b73a103a37b5b2b760591b6044820152606490fd5b15612b9b57565b60405162461bcd60e51b8152602060048201526013602482015272496e76616c69642062656e656669636961727960681b6044820152606490fd5b90601f8111612be457505050565b600091825260208220906020601f850160051c83019410612c20575b601f0160051c01915b828110612c1557505050565b818155600101612c09565b9092508290612c00565b91909182516001600160401b0381116107d757612c5181612c4b84546111fa565b84612bd6565b602080601f8311600114612c8d575081929394600092612c82575b50508160011b916000199060031b1c1916179055565b015190503880612c6c565b90601f19831695612ca385600052602060002090565b926000905b888210612ce057505083600195969710612cc7575b505050811b019055565b015160001960f88460031b161c19169055388080612cbd565b80600185968294968601518155019501930190612ca8565b8151815560208201516001820180546001600160a01b0319166001600160a01b0390921691909117905561080a91600b906101a090612d3e604082015160028601612c2a565b606081015160038501556080810151600485015560a080820151600586015560c0820151600686015560e08201516007860180546001600160a01b0319166001600160a01b0392831617905561010083015160088701805461012086015161014087015160ff60a01b91151590961b16929093166001600160b01b0319909316929092171791151560a81b60ff60a81b169190911790556101608101516009850155610180810151600a85015501519101612c2a565b60ff60055416612e0057565b60405163d93c066560e01b8152600490fd5b15612e1957565b60405162461bcd60e51b815260206004820152601060248201526f4173736574206e6f742061637469766560801b6044820152606490fd5b15612e5857565b60405162461bcd60e51b815260206004820152601860248201527f42656c6f77206d696e696d756d20696e766573746d656e7400000000000000006044820152606490fd5b15612ea457565b60405162461bcd60e51b815260206004820152601d60248201527f496e73756666696369656e742073686172657320617661696c61626c650000006044820152606490fd5b8181029291811591840414171561233d57565b8115612f06570490565b634e487b7160e01b600052601260045260246000fd5b9190820391821161233d57565b908160209103126102d15751610cd78161152c565b15612f4557565b60405162461bcd60e51b8152602060048201526013602482015272119959481d1c985b9cd9995c8819985a5b1959606a1b6044820152606490fd5b15612f8757565b60405162461bcd60e51b815260206004820152601760248201527f5061796d656e74207472616e73666572206661696c65640000000000000000006044820152606490fd5b9190820180921161233d57565b8054600160401b8110156107d757612ff691600182018155610593565b819291549060031b9160018060a01b03809116831b921b1916179055565b8054600160401b8110156107d75761303191600182018155610593565b819291549060031b91821b91600019901b1916179055565b916001600160a01b03831615611ff75761308060405192600184526020840152604083019160018352606084015260808301604052565b909361308a612df4565b613095828685613541565b60005b85518110156131325780846130b06131039389612342565b516130bb8387612342565b516130d761249884610696856000526008602052604060002090565b90556130f7611b61611b5a8461069685600052600e602052604060002090565b613108575b505061232e565b613098565b81610696826124ee61312b95611c21611c4196600052600d602052604060002090565b84386130fc565b50939291926001815114600014613158579060208061080a95930151910151913361269c565b61080a93336128ad565b600260045414613173576002600455565b604051633ee5aeb560e01b8152600490fd5b1561318c57565b60405162461bcd60e51b815260206004820152601e60248201527f4e6f74206120726576656e75652067656e65726174696e6720617373657400006044820152606490fd5b156131d857565b60405162461bcd60e51b815260206004820152600e60248201526d139bc81cda185c995cc81cdbdb1960921b6044820152606490fd5b1561321557565b60405162461bcd60e51b815260206004820152600f60248201526e151c985b9cd9995c8819985a5b1959608a1b6044820152606490fd5b8054600160401b8110156107d75761326b906001928382018155611caa565b613371578251815560208084015183830155604084015160028301556060840151600383015560808401516004830180546001600160a01b0319166001600160a01b03929092169190911790559060a090600501930151908151916001600160401b0383116107d7576132e8836132e287546111fa565b87612bd6565b81601f84116001146133215750928293918392600094613316575b50501b916000199060031b1c1916179055565b015192503880613303565b919083601f19811661333888600052602060002090565b946000905b888383106133575750505010612cc757505050811b019055565b85870151885590960195948501948793509081019061333d565b634e487b7160e01b600052600060045260246000fd5b9060405191828154918282526020928383019160005283600020936000905b8282106133bc5750505061080a925003836107dc565b85546001600160a01b0316845260019586019588955093810193909101906133a6565b610cd79392606092825260208201528160408201520190610413565b1561340257565b60405162461bcd60e51b81526020600482015260136024820152724e6f20726576656e756520746f20636c61696d60681b6044820152606490fd5b90613504600b61344b61080c565b8454815260018501546001600160a01b031660208201529361346f60028201611234565b60408601526003810154606086015260048101546080860152600581015460a0860152600681015460c086015260078101546001600160a01b031660e086015260088101546001600160a01b0381166101008701526134e89060ff9060a081901c8216151561012089015260a81c161515610140870152565b6009810154610160860152600a81015461018086015201611234565b6101a0830152565b91908110156105ab5760051b0190565b9091613533610cd793604084526040840190610c92565b916020818403910152610c92565b91909182518251908181036123f957505060005b83518110156135b857600581901b848101602090810151918501015161358e929184906001600160a01b0382166135935750505061232e565b613555565b6135ae91610696612498926000526000602052604060002090565b9055388381612470565b50916001815114600014613619576020908101519181015160408051938452918301526001600160a01b039092169160009133917fc3d58168c5ae7397731d063d5bbf3d657854427343f4c083240f7aacaa2d0f629190819081015b0390a4565b7f4a39dc06d4c0dbc64b70af90fd698a233a518aa5d07e595d983b8c0526c8f7fb6136146000939460405191829160018060a01b03169633958361351c565b93929180518351908181036123f957505060005b815181101561375f57600581901b82810160209081015191860101516001600160a01b03929185908985166136d8575b6136ae9482166136b35750505061232e565b61366c565b6136ce91610696612498926000526000602052604060002090565b9055388481612470565b91929390506136f589610696846000526000602052604060002090565b5483811061372857918691846136ae969594036137208c610696856000526000602052604060002090565b55945061369c565b6040516303dee4c560e01b81526001600160a01b038b16600482015260248101919091526044810184905260648101839052608490fd5b5080519394939192916001036137c1576020908101519181015160408051938452918301526001600160a01b03928316939092169133917fc3d58168c5ae7397731d063d5bbf3d657854427343f4c083240f7aacaa2d0f629181908101613614565b6040516001600160a01b03938416949093169233927f4a39dc06d4c0dbc64b70af90fd698a233a518aa5d07e595d983b8c0526c8f7fb928291613614918361351c56fea26469706673582212207c104ee162df2ed4e5c73eea2d698e7d2375652c33de2989c2c80b604f0d72da64736f6c634300081400332f8788117e7eff1d82e926ec794901d17c78024a50270940304540a733656f0d",
  "linkReferences": {},
  "deployedLinkReferences": {}
}